{
  "contractName": "CharityWebsite",
  "abi": [
    {
      "anonymous": false,
      "inputs": [
        {
          "indexed": true,
          "internalType": "uint256",
          "name": "projectId",
          "type": "uint256"
        },
        {
          "indexed": false,
          "internalType": "string",
          "name": "title",
          "type": "string"
        },
        {
          "indexed": false,
          "internalType": "string",
          "name": "description",
          "type": "string"
        },
        {
          "indexed": false,
          "internalType": "uint256",
          "name": "targetAmount",
          "type": "uint256"
        },
        {
          "indexed": false,
          "internalType": "address",
          "name": "walletAddress",
          "type": "address"
        }
      ],
      "name": "CharityProjectCreated",
      "type": "event"
    },
    {
      "anonymous": false,
      "inputs": [
        {
          "indexed": true,
          "internalType": "uint256",
          "name": "projectId",
          "type": "uint256"
        },
        {
          "indexed": true,
          "internalType": "address",
          "name": "donor",
          "type": "address"
        },
        {
          "indexed": false,
          "internalType": "uint256",
          "name": "amount",
          "type": "uint256"
        }
      ],
      "name": "DonationMade",
      "type": "event"
    },
    {
      "inputs": [
        {
          "internalType": "uint256",
          "name": "",
          "type": "uint256"
        }
      ],
      "name": "charityProjects",
      "outputs": [
        {
          "internalType": "string",
          "name": "title",
          "type": "string"
        },
        {
          "internalType": "string",
          "name": "description",
          "type": "string"
        },
        {
          "internalType": "uint256",
          "name": "targetAmount",
          "type": "uint256"
        },
        {
          "internalType": "address",
          "name": "walletAddress",
          "type": "address"
        },
        {
          "internalType": "uint256",
          "name": "amountReceived",
          "type": "uint256"
        }
      ],
      "stateMutability": "view",
      "type": "function",
      "constant": true
    },
    {
      "inputs": [],
      "name": "listAllCharityProjects",
      "outputs": [
        {
          "internalType": "uint256[]",
          "name": "",
          "type": "uint256[]"
        }
      ],
      "stateMutability": "view",
      "type": "function",
      "constant": true
    },
    {
      "inputs": [
        {
          "internalType": "string",
          "name": "_title",
          "type": "string"
        },
        {
          "internalType": "string",
          "name": "_description",
          "type": "string"
        },
        {
          "internalType": "uint256",
          "name": "_targetAmount",
          "type": "uint256"
        },
        {
          "internalType": "address",
          "name": "_walletAddress",
          "type": "address"
        }
      ],
      "name": "createCharityProject",
      "outputs": [],
      "stateMutability": "nonpayable",
      "type": "function"
    },
    {
      "inputs": [
        {
          "internalType": "uint256",
          "name": "_projectId",
          "type": "uint256"
        },
        {
          "internalType": "uint256",
          "name": "_amount",
          "type": "uint256"
        }
      ],
      "name": "donate",
      "outputs": [],
      "stateMutability": "payable",
      "type": "function",
      "payable": true
    },
    {
      "inputs": [
        {
          "internalType": "uint256",
          "name": "_projectId",
          "type": "uint256"
        }
      ],
      "name": "getCharityProject",
      "outputs": [
        {
          "internalType": "string",
          "name": "title",
          "type": "string"
        },
        {
          "internalType": "string",
          "name": "description",
          "type": "string"
        },
        {
          "internalType": "uint256",
          "name": "targetAmount",
          "type": "uint256"
        },
        {
          "internalType": "address",
          "name": "walletAddress",
          "type": "address"
        },
        {
          "internalType": "uint256",
          "name": "amountReceived",
          "type": "uint256"
        }
      ],
      "stateMutability": "view",
      "type": "function",
      "constant": true
    },
    {
      "inputs": [],
      "name": "getNumCharityProjects",
      "outputs": [
        {
          "internalType": "uint256",
          "name": "",
          "type": "uint256"
        }
      ],
      "stateMutability": "view",
      "type": "function",
      "constant": true
    }
  ],
  "bytecode": "0x608060405234801561001057600080fd5b5061129c806100206000396000f3fe6080604052600436106100555760003560e01c80630cdd53f61461005a5780631fd421f4146100765780635ac44ce3146100b7578063b7960d4c146100e0578063ce547c311461010b578063d0db6b091461014c575b600080fd5b610074600480360381019061006f9190610880565b610177565b005b34801561008257600080fd5b5061009d600480360381019061009891906108c0565b610290565b6040516100ae9594939291906109cd565b60405180910390f35b3480156100c357600080fd5b506100de60048036038101906100d99190610b8f565b610406565b005b3480156100ec57600080fd5b506100f5610553565b6040516101029190610cec565b60405180910390f35b34801561011757600080fd5b50610132600480360381019061012d91906108c0565b6105f1565b6040516101439594939291906109cd565b60405180910390f35b34801561015857600080fd5b5061016161082a565b60405161016e9190610d0e565b60405180910390f35b60008054905082106101be576040517f08c379a00000000000000000000000000000000000000000000000000000000081526004016101b590610d75565b60405180910390fd5b60008111610201576040517f08c379a00000000000000000000000000000000000000000000000000000000081526004016101f890610e07565b60405180910390fd5b806000838154811061021657610215610e27565b5b906000526020600020906005020160040160008282546102369190610e85565b925050819055503373ffffffffffffffffffffffffffffffffffffffff16827fe555da28bdb778f65d22794d88927ebaeca03f7de9d1b7d39245bc8fb5ca078a836040516102849190610d0e565b60405180910390a35050565b600081815481106102a057600080fd5b90600052602060002090600502016000915090508060000180546102c390610ee8565b80601f01602080910402602001604051908101604052809291908181526020018280546102ef90610ee8565b801561033c5780601f106103115761010080835404028352916020019161033c565b820191906000526020600020905b81548152906001019060200180831161031f57829003601f168201915b50505050509080600101805461035190610ee8565b80601f016020809104026020016040519081016040528092919081815260200182805461037d90610ee8565b80156103ca5780601f1061039f576101008083540402835291602001916103ca565b820191906000526020600020905b8154815290600101906020018083116103ad57829003601f168201915b5050505050908060020154908060030160009054906101000a900473ffffffffffffffffffffffffffffffffffffffff16908060040154905085565b60006040518060a001604052808681526020018581526020018481526020018373ffffffffffffffffffffffffffffffffffffffff16815260200160008152509080600181540180825580915050600190039060005260206000209060050201600090919091909150600082015181600001908161048491906110c5565b50602082015181600101908161049a91906110c5565b506040820151816002015560608201518160030160006101000a81548173ffffffffffffffffffffffffffffffffffffffff021916908373ffffffffffffffffffffffffffffffffffffffff1602179055506080820151816004015550506000600160008054905061050c9190611197565b9050807fe6099b238d8f2957bf4291f35516508a3d115657691e92dbea2a5639dcd9391f8686868660405161054494939291906111cb565b60405180910390a25050505050565b60606000808054905067ffffffffffffffff81111561057557610574610a38565b5b6040519080825280602002602001820160405280156105a35781602001602082028036833780820191505090505b50905060005b6000805490508110156105e957808282815181106105ca576105c9610e27565b5b60200260200101818152505080806105e19061121e565b9150506105a9565b508091505090565b60608060008060008080549050861061063f576040517f08c379a000000000000000000000000000000000000000000000000000000000815260040161063690610d75565b60405180910390fd5b600080878154811061065457610653610e27565b5b90600052602060002090600502016040518060a001604052908160008201805461067d90610ee8565b80601f01602080910402602001604051908101604052809291908181526020018280546106a990610ee8565b80156106f65780601f106106cb576101008083540402835291602001916106f6565b820191906000526020600020905b8154815290600101906020018083116106d957829003601f168201915b5050505050815260200160018201805461070f90610ee8565b80601f016020809104026020016040519081016040528092919081815260200182805461073b90610ee8565b80156107885780601f1061075d57610100808354040283529160200191610788565b820191906000526020600020905b81548152906001019060200180831161076b57829003601f168201915b50505050508152602001600282015481526020016003820160009054906101000a900473ffffffffffffffffffffffffffffffffffffffff1673ffffffffffffffffffffffffffffffffffffffff1673ffffffffffffffffffffffffffffffffffffffff168152602001600482015481525050905080600001518160200151826040015183606001518460800151955095509550955095505091939590929450565b60008080549050905090565b6000604051905090565b600080fd5b600080fd5b6000819050919050565b61085d8161084a565b811461086857600080fd5b50565b60008135905061087a81610854565b92915050565b6000806040838503121561089757610896610840565b5b60006108a58582860161086b565b92505060206108b68582860161086b565b9150509250929050565b6000602082840312156108d6576108d5610840565b5b60006108e48482850161086b565b91505092915050565b600081519050919050565b600082825260208201905092915050565b60005b8381101561092757808201518184015260208101905061090c565b60008484015250505050565b6000601f19601f8301169050919050565b600061094f826108ed565b61095981856108f8565b9350610969818560208601610909565b61097281610933565b840191505092915050565b6109868161084a565b82525050565b600073ffffffffffffffffffffffffffffffffffffffff82169050919050565b60006109b78261098c565b9050919050565b6109c7816109ac565b82525050565b600060a08201905081810360008301526109e78188610944565b905081810360208301526109fb8187610944565b9050610a0a604083018661097d565b610a1760608301856109be565b610a24608083018461097d565b9695505050505050565b600080fd5b600080fd5b7f4e487b7100000000000000000000000000000000000000000000000000000000600052604160045260246000fd5b610a7082610933565b810181811067ffffffffffffffff82111715610a8f57610a8e610a38565b5b80604052505050565b6000610aa2610836565b9050610aae8282610a67565b919050565b600067ffffffffffffffff821115610ace57610acd610a38565b5b610ad782610933565b9050602081019050919050565b82818337600083830152505050565b6000610b06610b0184610ab3565b610a98565b905082815260208101848484011115610b2257610b21610a33565b5b610b2d848285610ae4565b509392505050565b600082601f830112610b4a57610b49610a2e565b5b8135610b5a848260208601610af3565b91505092915050565b610b6c816109ac565b8114610b7757600080fd5b50565b600081359050610b8981610b63565b92915050565b60008060008060808587031215610ba957610ba8610840565b5b600085013567ffffffffffffffff811115610bc757610bc6610845565b5b610bd387828801610b35565b945050602085013567ffffffffffffffff811115610bf457610bf3610845565b5b610c0087828801610b35565b9350506040610c118782880161086b565b9250506060610c2287828801610b7a565b91505092959194509250565b600081519050919050565b600082825260208201905092915050565b6000819050602082019050919050565b610c638161084a565b82525050565b6000610c758383610c5a565b60208301905092915050565b6000602082019050919050565b6000610c9982610c2e565b610ca38185610c39565b9350610cae83610c4a565b8060005b83811015610cdf578151610cc68882610c69565b9750610cd183610c81565b925050600181019050610cb2565b5085935050505092915050565b60006020820190508181036000830152610d068184610c8e565b905092915050565b6000602082019050610d23600083018461097d565b92915050565b7f496e76616c69642070726f6a6563742049440000000000000000000000000000600082015250565b6000610d5f6012836108f8565b9150610d6a82610d29565b602082019050919050565b60006020820190508181036000830152610d8e81610d52565b9050919050565b7f446f6e6174696f6e20616d6f756e74206d75737420626520677265617465722060008201527f7468616e20300000000000000000000000000000000000000000000000000000602082015250565b6000610df16026836108f8565b9150610dfc82610d95565b604082019050919050565b60006020820190508181036000830152610e2081610de4565b9050919050565b7f4e487b7100000000000000000000000000000000000000000000000000000000600052603260045260246000fd5b7f4e487b7100000000000000000000000000000000000000000000000000000000600052601160045260246000fd5b6000610e908261084a565b9150610e9b8361084a565b9250828201905080821115610eb357610eb2610e56565b5b92915050565b7f4e487b7100000000000000000000000000000000000000000000000000000000600052602260045260246000fd5b60006002820490506001821680610f0057607f821691505b602082108103610f1357610f12610eb9565b5b50919050565b60008190508160005260206000209050919050565b60006020601f8301049050919050565b600082821b905092915050565b600060088302610f7b7fffffffffffffffffffffffffffffffffffffffffffffffffffffffffffffffff82610f3e565b610f858683610f3e565b95508019841693508086168417925050509392505050565b6000819050919050565b6000610fc2610fbd610fb88461084a565b610f9d565b61084a565b9050919050565b6000819050919050565b610fdc83610fa7565b610ff0610fe882610fc9565b848454610f4b565b825550505050565b600090565b611005610ff8565b611010818484610fd3565b505050565b5b8181101561103457611029600082610ffd565b600181019050611016565b5050565b601f8211156110795761104a81610f19565b61105384610f2e565b81016020851015611062578190505b61107661106e85610f2e565b830182611015565b50505b505050565b600082821c905092915050565b600061109c6000198460080261107e565b1980831691505092915050565b60006110b5838361108b565b9150826002028217905092915050565b6110ce826108ed565b67ffffffffffffffff8111156110e7576110e6610a38565b5b6110f18254610ee8565b6110fc828285611038565b600060209050601f83116001811461112f576000841561111d578287015190505b61112785826110a9565b86555061118f565b601f19841661113d86610f19565b60005b8281101561116557848901518255600182019150602085019450602081019050611140565b86831015611182578489015161117e601f89168261108b565b8355505b6001600288020188555050505b505050505050565b60006111a28261084a565b91506111ad8361084a565b92508282039050818111156111c5576111c4610e56565b5b92915050565b600060808201905081810360008301526111e58187610944565b905081810360208301526111f98186610944565b9050611208604083018561097d565b61121560608301846109be565b95945050505050565b60006112298261084a565b91507fffffffffffffffffffffffffffffffffffffffffffffffffffffffffffffffff820361125b5761125a610e56565b5b60018201905091905056fea2646970667358221220b060850ac296979134a0872218a9ba931b9332d41f38b97c05c3be24b44632b164736f6c63430008130033",
  "immutableReferences": {},
  "source": "// SPDX-License-Identifier: MIT\npragma solidity ^0.8.19;\n\ncontract CharityWebsite {\n\n    struct CharityProject {\n        string title;\n        string description;\n        uint targetAmount;\n        address walletAddress;\n        uint amountReceived;\n    }\n\n    CharityProject[] public charityProjects;\n\n    event CharityProjectCreated(uint indexed projectId, string title, string description, uint targetAmount, address walletAddress);\n    event DonationMade(uint indexed projectId, address indexed donor, uint amount);\n\n    function listAllCharityProjects() public view returns (uint[] memory) {\n        uint[] memory projectIds = new uint[](charityProjects.length);\n        for (uint i = 0; i < charityProjects.length; i++) {\n            projectIds[i] = i;\n        }\n        return projectIds;\n    }\n\n    function createCharityProject(string memory _title, string memory _description, uint _targetAmount, address _walletAddress) public {\n        charityProjects.push(CharityProject(_title, _description, _targetAmount, _walletAddress, 0));\n        uint projectId = charityProjects.length - 1;\n        emit CharityProjectCreated(projectId, _title, _description, _targetAmount, _walletAddress);\n    }\n\n    function donate(uint _projectId, uint _amount) public payable {\n        require(_projectId < charityProjects.length, \"Invalid project ID\");\n        require(_amount > 0, \"Donation amount must be greater than 0\");\n\n        charityProjects[_projectId].amountReceived += _amount;\n        emit DonationMade(_projectId, msg.sender, _amount);\n    }\n\n    function getCharityProject(uint _projectId) public view returns (string memory title, string memory description, uint targetAmount, address walletAddress, uint amountReceived) {\n        require(_projectId < charityProjects.length, \"Invalid project ID\");\n\n        CharityProject memory project = charityProjects[_projectId];\n        return (project.title, project.description, project.targetAmount, project.walletAddress, project.amountReceived);\n    }\n\n    function getNumCharityProjects() public view returns (uint) {\n        return charityProjects.length;\n    }\n}\n",
  "sourcePath": "/Users/abhay/PycharmProjects/CharityWeb3/contracts/CharityWebsite.sol",
  "compiler": {
    "name": "solc",
    "version": "0.8.19+commit.7dd6d404.Emscripten.clang"
  },
  "schemaVersion": "3.4.16",
  "updatedAt": "2024-04-10T06:25:25.973Z",
  "networkType": "ethereum",
  "devdoc": {
    "kind": "dev",
    "methods": {},
    "version": 1
  },
  "userdoc": {
    "kind": "user",
    "methods": {},
    "version": 1
  }
}